:100000000C9462000C948A000C948A000C948A0070
:100010000C948A000C948A000C948A000C94B1040D
:100020000C948A000C948A000C948A000C94F503BA
:100030000C948A000C948A000C948A000C948A0018
:100040000C94AB030C948A000C948A000C948A00E4
:100050000C948A000C948A000C948A000C948A00F8
:100060000C948A000C948A000000000024002700F1
:100070002A0000000000250028002B0000000008D6
:10008000000201000003040700000000000000005F
:1000900000000000230026002900040404040404D6
:1000A0000404020202020202030303030303010227
:1000B00004081020408001020408102001020408F6
:1000C0001020960611241FBECFEFD8E0DEBFCDBFB3
:1000D00011E0A0E0B1E0EAE8F1E102C005900D9284
:1000E000A633B107D9F721E0A6E3B1E001C01D9224
:1000F000A639B207E1F710E0C2E6D0E004C02197CC
:10010000FE010E94BD08C136D107C9F70E941B0538
:100110000C94C3080C9400008F929F92AF92BF92F0
:10012000FF920F931F93CF93DF93F0907B012BE00F
:100130002F1508F44CC020917D0108E512E0021B48
:10014000110927FD1395000F111F000F111F20919A
:100150007C01C8E8D0E0C21BD10927FDD395CC0FA4
:10016000DD1FCC0FDD1F4E010D2E000CAA08BB08B1
:100170009801012E000C440B550B281939094A0926
:100180005B09DC010E94420724EB30E040E050E0D4
:100190000E941807820E931EA41EB51E8C169D0683
:1001A0002CF0E801801691060CF4E4012297CC0FA4
:1001B000DD1F2FB7F8948F2D90E0FC01EE0FFF1F8D
:1001C000E80FF91FE95AFE4FD283C1832FBFDF9199
:1001D000CF911F910F91FF90BF90AF909F908F9004
:1001E0000895AF92BF92CF92DF92EF92FF920F935A
:1001F0001F93CF93DF936C017B018B01040F151FBD
:10020000EB015E01AE18BF08C017D10759F0699124
:10021000D601ED91FC910190F081E02DC601099588
:10022000892B79F7C501DF91CF911F910F91FF9035
:10023000EF90DF90CF90BF90AF90089590E0FC01D9
:10024000E458FF4F2491FC01E255FF4F3491FC012B
:10025000E656FF4FE491EE23C9F0222339F0233014
:1002600001F1A8F4213019F1223029F1F0E0EE0F6C
:10027000FF1FEE58FF4FA591B4918FB7F894EC9102
:10028000611126C030953E233C938FBF08952730DF
:10029000A9F02830C9F0243049F7809180008F7D83
:1002A00003C0809180008F7780938000DFCF84B57A
:1002B0008F7784BDDBCF84B58F7DFBCF8091B0007D
:1002C0008F778093B000D2CF8091B0008F7DF9CF2F
:1002D0003E2BDACFCF93DF9390E0FC01E255FF4F46
:1002E000249186569F4FFC0184918823D1F090E0A1
:1002F000880F991FFC01E859FF4FA591B491FC01AB
:10030000EE58FF4FC591D49161110EC09FB7F8947C
:100310008C91E22FE0958E238C932881E223E88351
:100320009FBFDF91CF9108958FB7F894EC91E22BA6
:10033000EC938FBFF6CF3FB7F89480915301909123
:100340005401A0915501B091560126B5A89B05C056
:100350002F3F19F00196A11DB11D3FBFBA2FA92F44
:10036000982F8827BC01CD01620F711D811D911D41
:1003700042E0660F771F881F991F4A95D1F70895AD
:100380008F929F92AF92BF92CF92DF92EF92FF92A5
:100390004B015C010E949B016B017C010E949B014F
:1003A0006C197D098E099F09683E7340810591058E
:1003B000A8F321E0821A9108A108B10888EEC80EBE
:1003C00083E0D81EE11CF11C81149104A104B10446
:1003D00029F7FF90EF90DF90CF90BF90AF909F9064
:1003E0008F900895089590E080E008958F929F92F5
:1003F000AF92BF920F931F93CF93DF93CDB7DEB72A
:10040000A1970FB6F894DEBF0FBECDBF19A2423040
:1004100008F44AE08E010F5D1F4F842E912CB12C01
:10042000A12CA50194010E944A07E62FB901CA0137
:10043000EA3044F5E05DD801EE938D01232B242BA7
:10044000252B79F790E080E0109769F0FD0101908D
:100450000020E9F73197AF014A1B5B0BBD018EE726
:1004600091E00E94F100A1960FB6F894DEBF0FBE96
:10047000CDBFDF91CF911F910F91BF90AF909F9013
:100480008F900895E95CD7CFFC0101900020E9F737
:100490003197AF01481B590BBC018EE791E00C94DA
:1004A000F100CF93DF93EC0160E08E810E941E018A
:1004B00061E08E810E941E0160E08E810E941E011B
:1004C0008BE891E00197F1F7DF91CF910895CF92FA
:1004D000DF92EF92FF920F931F93CF93DF936C0104
:1004E0007C0187E0E80EF11CD0E0C0E0062F10E0B0
:1004F000B8010C2E02C0759567950A94E2F76170F9
:10050000F70181917F010E941E012196C430D1051F
:1005100079F7C601DF91CF911F910F91FF90EF9076
:10052000DF90CF900C945102CF92DF92EF92FF9226
:100530000F931F93CF93DF93EC01F62E642F8C81E2
:100540000E941E018D818F3F19F060E00E941E0104
:100550000F2D10E08F8584FF25C06E0187E0C80E47
:10056000D11CF12CE12CB8010E2C02C075956795B9
:100570000A94E2F76170F60181916F010E941E01F9
:10058000FFEFEF1AFF0A88E0E816F10461F7CE01E9
:10059000DF91CF911F910F91FF90EF90DF90CF905F
:1005A0000C945102B80184E0759567958A95E1F73E
:1005B000CE010E9467026F2DCE01DF91CF911F9176
:1005C0000F91FF90EF90DF90CF900C94670240E086
:1005D000682F8EE791E00C94940281E00E94E7027C
:1005E0008BE39FE10197F1F70895CF93DF9382307A
:1005F00029F490918D01986090938D0180939101E1
:100600001092920180E48093930180E180939401A1
:1006100080E58093950161E0809182010E946A01EA
:10062000809183018F3F19F061E00E946A0161E0CF
:10063000809184010E946A01CEE7D1E09E012E578D
:10064000314080918D0184FD0BC084E090E02196C3
:100650002817390744F461E08E810E946A01EECFC9
:1006600088E090E0F4CF8BE39DE00197F1F760E044
:10067000809182010E941E0160E0809184010E94AD
:100680001E01809183018F3F19F060E00E941E01DE
:1006900080918D0184FD34C063E08EE791E00E947B
:1006A0006702CBE4D6E4CE010197F1F763E08EE771
:1006B00091E00E9467022197F1F763E08EE791E0F5
:1006C0000E94670283E592E00197F1F762E08EE70E
:1006D00091E00E94670280918D0180620E94E70292
:1006E00084E080938E018CE00E94E7020E94ED027C
:1006F00082E080938F0186E0DF91CF910C94E70236
:1007000080620E94E7028BE496E40197F1F7809102
:100710008D0180620E94E70283E592E00197F1F784
:1007200080918D0180620E94E702D5CF9091910166
:10073000691710F06FEF690FE62FF0E0E258FE4FF7
:100740009489890F80680C94E70241E00E9494022A
:1007500081E090E008951F920F920FB60F9211243E
:100760002F933F938F939F93AF93BF9380914F01AC
:1007700090915001A0915101B091520130914E01E0
:1007800023E0230F2D3758F50196A11DB11D2093AD
:100790004E0180934F0190935001A0935101B0936B
:1007A00052018091530190915401A0915501B09153
:1007B00056010196A11DB11D8093530190935401E0
:1007C000A0935501B0935601BF91AF919F918F9126
:1007D0003F912F910F900FBE0F901F90189526E814
:1007E000230F0296A11DB11DD2CF1F920F920FB6FB
:1007F0000F9211242F933F934F935F936F937F93A7
:100800008F939F93AF93BF93CF93DF93EF93FF9318
:1008100080914D01C0914C01D0E087FF24C010921F
:1008200085001092840080914D018F5F80934D016F
:1008300080914D01082E000C990B8C179D0724F414
:1008400080914D018C30C4F180918400909185009D
:10085000049680349C4908F47AC080918400909179
:100860008500049676C080914D01082E000C990BEE
:100870008C179D07C4F6E0914D018E2FEE0F990B5A
:10088000FC01EE0FFF1FE80FF91FE95AFE4F8081B0
:1008900086FFC9CFE0914D018E2FEE0F990BFC0121
:1008A000EE0FFF1FE80FF91FE95AFE4F808160E04D
:1008B0008F730E941E01B7CF209184003091850074
:1008C000E0914D018E2FEE0F990BFC01EE0FFF1FF3
:1008D000E80FF91FE95AFE4F81819281820F931F21
:1008E0009093890080938800E0914D018E2FEE0F48
:1008F000990BFC01EE0FFF1FE80FF91FE95AFE4F9D
:10090000808186FF11C0E0914D018E2FEE0F990B73
:10091000FC01EE0FFF1FE80FF91FE95AFE4F80811F
:1009200061E08F730E941E01FF91EF91DF91CF91E3
:10093000BF91AF919F918F917F916F915F914F91F7
:100940003F912F910F900FBE0F901F90189580E44C
:100950009CE990938900809388008FEF80934D01EC
:10096000E3CF1F920F920FB60F9211242F933F9354
:100970004F935F936F937F938F939F93AF93BF93A7
:10098000EF93FF93F0E0E0E00995FF91EF91BF91C5
:10099000AF919F918F917F916F915F914F913F9117
:1009A0002F910F900FBE0F901F901895CF92DF924E
:1009B000EF92FF920F931F93E82FF92F05C001507C
:1009C00011092109310961F1908196239417B9F336
:1009D00005C0015011092109310911F190819623B7
:1009E0009413F7CFC12CD12CE12CF12C0AC08FEF3E
:1009F000C81AD80AE80AF80A0C151D052E053F0585
:100A000079F080818623841791F36C2D7D2D8E2DB6
:100A10009F2D1F910F91FF90EF90DF90CF90089541
:100A200060E070E080E090E01F910F91FF90EF9008
:100A3000DF90CF900895789484B5826084BD84B5AA
:100A4000816084BD85B5826085BD85B5816085BDC9
:100A500080916E00816080936E0010928100809181
:100A60008100826080938100809181008160809309
:100A70008100809180008160809380008091B1002E
:100A800084608093B1008091B00081608093B00059
:100A900080917A00846080937A0080917A008260ED
:100AA00080937A0080917A00816080937A008091AF
:100AB0007A00806880937A001092C10061E08CE037
:100AC0000E946A0160E08DE00E946A0161E082E0BC
:100AD0000E946A0161E083E00E946A0180917B01CB
:100AE0008C3008F051C061E089E00E946A01809179
:100AF0007B01282F30E0F901EE0FFF1FE20FF31FFB
:100B0000E95AFE4F9081907C9960908310927C010D
:100B100010927D012CE0622F0E94B108829FB001EB
:100B2000112430E020E0AB01420F531FFA01EE0F19
:100B3000FF1FE40FF51FE95AFE4F908196FD16C086
:100B40002F5F3F4F2C30310571F781110FC010928C
:100B5000800082E0809381001092850010928400D2
:100B6000B19A80916F00826080936F00E0917B0169
:100B70008E2F90E0FC01EE0FFF1FE80FF91FE95ADE
:100B8000FE4F80818064808382E00E94F50223E032
:100B9000E22EF12C33E2C32ED12C4BEB242E40E07D
:100BA000342E57EA852E50E0952E60E0A62E60E0A8
:100BB000B62E60E08CE00E941E01C7010197F1F79C
:100BC00061E08CE00E941E01C6010197F1F760E030
:100BD0008CE00E941E01F1016491F4018491E82FE0
:100BE000F0E0EE0FFF1FE057FF4F8591949100E476
:100BF00012E42FE030E0462F0E94D6046115710503
:100C00008105910529F06F5F7F4F8F4F9F4F9F7038
:100C10009B0177FF02C02F5F3F4FB9017595679524
:100C2000072E000C880B990B0E9425082DEC3CEC3C
:100C300048EE51E40E947B070E94ED072B01EB0177
:100C400060E080E00E949603052C000C660877089F
:100C50004AE0C301B20177FE0EC041E06DE28EE7CB
:100C600091E00E94940266277727CB0164197509E9
:100C7000860997094AE00E94F6018CE091E00E9403
:100C8000440268EE73E080E090E00E94C001C53647
:100C9000D105ACF460E082E00E941E0161E083E0D7
:100CA0000E941E010E94ED0261E081E00E94960315
:100CB0008FE091E00E94440284EB90E017C0CC32B8
:100CC000D1401CF560E083E00E941E0161E082E0FB
:100CD0000E941E010E94ED0261E081E00E949603E5
:100CE0008BE191E00E9444028AE590E00E948C0032
:100CF00062EC71E080E090E00E94C001A114B104B8
:100D000009F457CF0E94000054CF61E082E00E94B6
:100D10001E0161E083E00E941E010E94ED0261E07D
:100D200081E00E94960386E291E0C4CFEAEBF0E016
:100D3000E491E0933E01EBEBF0E0E491E0933F01BE
:100D400086EA90E0FC012491E22FF0E0EE0FFF1F15
:100D5000EE58FF4F2591349130934101209340018B
:100D6000E7EAF0E0E491F0E0EE0FFF1FE057FF4FFD
:100D7000259134913093430120934201FC018491E9
:100D8000E82FF0E0EE0FFF1FE859FF4F8591949197
:100D9000909345018093440185E093E4909347014B
:100DA0008093460180914C018C30F0F591E0980FD2
:100DB00090934C0180937B0190E0FC01EE0FFF1FAC
:100DC000E80FF91FE95AFE4F88EB9BE0928381837D
:100DD000109281011092800184E091E090937F0154
:100DE00080937E0188E0809382018FEF809383015E
:100DF0008BE08093840187E08093850186E0809377
:100E0000860185E08093870184E0809388011092B9
:100E1000890110928A0110928B0110928C0110921C
:100E20008D0181E00C94F5028FEF80937B01D0CF90
:100E3000052E97FB1EF400940E942F0757FD07D044
:100E40000E944A0707FC03D04EF40C942F075095DC
:100E50004095309521953F4F4F4F5F4F08959095A6
:100E60008095709561957F4F8F4F9F4F08950E9499
:100E70006C07A59F900DB49F900DA49F800D911DB0
:100E800011240895B7FF0C9437070E943707821B7F
:100E9000930B0895A1E21A2EAA1BBB1BFD010DC0E6
:100EA000AA1FBB1FEE1FFF1FA217B307E407F5071A
:100EB00020F0A21BB30BE40BF50B661F771F881FF6
:100EC000991F1A9469F760957095809590959B018C
:100ED000AC01BD01CF010895A29FB001B39FC00135
:100EE000A39F700D811D1124911DB29F700D811D56
:100EF0001124911D08950E948F070C9477080E9479
:100F0000700858F00E94690840F029F45F3F29F00A
:100F10000C94600851110C94AB080C9466080E9464
:100F2000880868F39923B1F3552391F3951B550B6A
:100F3000BB27AA2762177307840738F09F5F5F4FAC
:100F4000220F331F441FAA1FA9F335D00E2E3AF0EB
:100F5000E0E832D091505040E695001CCAF72BD003
:100F6000FE2F29D0660F771F881FBB1F2617370754
:100F70004807AB07B0E809F0BB0B802DBF01FF2786
:100F800093585F4F3AF09E3F510578F00C946008FB
:100F90000C94AB085F3FE4F3983ED4F386957795C5
:100FA0006795B795F7959F5FC9F7880F911D96953F
:100FB000879597F90895E1E0660F771F881FBB1F9B
:100FC000621773078407BA0720F0621B730B840B48
:100FD000BA0BEE1F88F7E09508950E94F407689415
:100FE000B1110C94AB0808950E94900888F09F57A7
:100FF00098F0B92F9927B751B0F0E1F0660F771F3D
:10100000881F991F1AF0BA95C9F714C0B13091F032
:101010000E94AA08B1E008950C94AA08672F782FBF
:101020008827B85F39F0B93FCCF3869577956795F7
:10103000B395D9F73EF490958095709561957F4F63
:101040008F4F9F4F0895E89409C097FB3EF4909509
:101050008095709561957F4F8F4F9F4F9923A9F091
:10106000F92F96E9BB279395F69587957795679520
:10107000B795F111F8CFFAF4BB0F11F460FF1BC064
:101080006F5F7F4F8F4F9F4F16C0882311F096E9F7
:1010900011C0772321F09EE8872F762F05C06623A5
:1010A00071F096E8862F70E060E02AF09A95660F5E
:1010B000771F881FDAF7880F9695879597F9089517
:1010C00097F99F6780E870E060E008959FEF80ECFB
:1010D000089500240A94161617061806090608959E
:1010E00000240A9412161306140605060895092E04
:1010F0000394000C11F4882352F0BB0F40F4BF2B73
:1011000011F460FF04C06F5F7F4F8F4F9F4F0895B2
:1011100057FD9058440F551F59F05F3F71F04795A8
:10112000880F97FB991F61F09F3F79F0879508958D
:10113000121613061406551FF2CF4695F1DF08C0AC
:10114000161617061806991FF1CF869571056105C9
:1011500008940895E894BB2766277727CB0197F971
:101160000895991B79E004C0991F961708F0961B03
:10117000881F7A95C9F780950895EE0FFF1F059097
:0A118000F491E02D0994F894FFCFDC
:10118A0000000000A503F100F301F201636D0020E5
:10119A00636C6F7365207461702000206F70656ED8
:1011AA002074617020002074616E6B206973206660
:0611BA00756C6C200000C2
:00000001FF
