:100000000C9462000C948A000C948A000C948A0070
:100010000C948A000C948A000C948A000C94AB0512
:100020000C948A000C948A000C948A000C94EF04BF
:100030000C948A000C948A000C948A000C948A0018
:100040000C94A5040C948A000C9473040C944D0435
:100050000C948A000C948A000C948A000C948A00F8
:100060000C948A000C948A00000000080002010031
:100070000003040700000000000000000000000072
:10008000240027002A000000000023002600290089
:1000900000000000250028002B00040404040404D0
:1000A0000404020202020202030303030303010227
:1000B00004081020408001020408102001020408F6
:1000C0001020150611241FBECFEFD8E0DEBFCDBF34
:1000D00011E0A0E0B1E0E0EFF4E102C005900D9284
:1000E000A833B107D9F722E0A8E3B1E001C01D921F
:1000F000A533B207E1F710E0C2E6D0E004C02197D3
:10010000FE010E94700AC136D107C9F70E94D906C4
:100110000C94760A0C940000E0912002EC3088F5F3
:100120004091210228E830E0241B310947FD339536
:10013000220F331F220F331F8217930784F0409141
:10014000220228E532E0241B310947FD3395220FB6
:10015000331F220F331F821793070CF49C01225088
:100160003109220F331F4FB7F8948E2F90E0FC0116
:10017000EE0FFF1FE80FF91FED51FE4F3283218371
:100180004FBF0895AF92BF92CF92DF92EF92FF924E
:100190000F931F93CF93DF936C017B018B01040FAF
:1001A000151FEB015E01AE18BF08C017D10759F04B
:1001B0006991D601ED91FC910190F081E02DC6018D
:1001C0000995892B79F7C501DF91CF911F910F9187
:1001D000FF90EF90DF90CF90BF90AF900895FC011B
:1001E000538D448D252F30E0842F90E0821B930B9C
:1001F000541710F0CF96089501970895FC01918D42
:10020000828D981761F0A28DAE0FBF2FB11D5D9644
:100210008C91928D9F5F9F73928F90E008958FEFE6
:100220009FEF0895FC01918D828D981731F0828D9A
:10023000E80FF11D858D90E008958FEF9FEF0895F1
:10024000FC01918D228D892F90E0805C9F4F821B55
:1002500091098F739927089586E491E00E94200107
:1002600021E0892B09F420E0822F089580E090E0BE
:10027000892B29F00E942C0181110C940000089513
:10028000FC01A48DA80FB92FB11DA35ABF4F2C910B
:10029000848D90E001968F739927848FA689B78902
:1002A0002C93A089B1898C91837080648C93938DF9
:1002B000848D981306C00288F389E02D80818F7D9C
:1002C00080830895EF92FF920F931F93CF93DF9354
:1002D000EC0181E0888F9B8D8C8D98131AC0E88982
:1002E000F989808185FF15C09FB7F894EE89FF8951
:1002F0006083E889F98980818370806480839FBFEF
:1003000081E090E0DF91CF911F910F91FF90EF90EE
:100310000895F62E0B8D10E00F5F1F4F0F731127FE
:10032000E02E8C8D8E110CC00FB607FCFACFE88939
:10033000F989808185FFF5CFCE010E944001F1CF80
:10034000EB8DEC0FFD2FF11DE35AFF4FF0829FB7AD
:10035000F8940B8FEA89FB8980818062CFCFCF939D
:10036000DF93EC01888D8823B9F0AA89BB89E889DD
:10037000F9898C9185FD03C0808186FD0DC00FB683
:1003800007FCF7CF8C9185FFF2CF808185FFEDCF01
:10039000CE010E944001E9CFDF91CF91089590E016
:1003A000FC01E859FF4F2491FC01E255FF4F3491C5
:1003B000FC01E656FF4FE491EE23C9F0222339F009
:1003C000233001F1A8F4213019F1223029F1F0E0B5
:1003D000EE0FFF1FE057FF4FA591B4918FB7F89430
:1003E000EC91611126C030953E233C938FBF089558
:1003F0002730A9F02830C9F0243049F780918000D7
:100400008F7D03C0809180008F7780938000DFCF45
:1004100084B58F7784BDDBCF84B58F7DFBCF809192
:10042000B0008F778093B000D2CF8091B0008F7DE5
:10043000F9CF3E2BDACFCF93DF9390E0FC01E2556A
:10044000FF4F249186569F4FFC0184918823D1F061
:1004500090E0880F991FFC01E458FF4FA591B491DB
:10046000FC01E057FF4FC591D49161110EC09FB7B9
:10047000F8948C91E22FE0958E238C932881E223CF
:10048000E8839FBFDF91CF9108958FB7F894EC91E7
:10049000E22BEC938FBFF6CF3FB7F89480914201E7
:1004A00090914301A0914401B091450126B5A89BCC
:1004B00005C02F3F19F00196A11DB11D3FBFBA2FF6
:1004C000A92F982F8827BC01CD01620F711D811DB6
:1004D000911D42E0660F771F881F991F4A95D1F73B
:1004E00008958F929F92AF92BF92CF92DF92EF9238
:1004F000FF924B015C010E944C026B017C010E9447
:100500004C026C197D098E099F09683E7340810574
:100510009105A8F321E0821A9108A108B10888EE9C
:10052000C80E83E0D81EE11CF11C81149104A104C3
:10053000B10429F7FF90EF90DF90CF90BF90AF907C
:100540009F908F900895089590E080E008958F9295
:100550009F92AF92BF920F931F93CF93DF93CDB72C
:10056000DEB7A1970FB6F894DEBF0FBECDBF19A2BC
:10057000423008F44AE08E010F5D1F4F842E912C0B
:10058000B12CA12CA50194010E94FD08E62FB90110
:10059000CA01EA3044F5E05DD801EE938D01232BCA
:1005A000242B252B79F790E080E0109769F0FD016E
:1005B00001900020E9F73197AF014A1B5B0BBD01A9
:1005C00088E092E00E94C200A1960FB6F894DEBFC8
:1005D0000FBECDBFDF91CF911F910F91BF90AF9014
:1005E0009F908F900895E95CD7CFFC010190002087
:1005F000E9F73197AF01481B590BBC0188E092E045
:100600000C94C200CF93DF93EC0160E08E810E94D6
:10061000CF0161E08E810E94CF0160E08E810E9457
:10062000CF018BE891E00197F1F7DF91CF91089529
:10063000CF92DF92EF92FF920F931F93CF93DF93AE
:100640006C017C0187E0E80EF11CD0E0C0E0062FD1
:1006500010E0B8010C2E02C0759567950A94E2F778
:100660006170F70181917F010E94CF012196C43012
:10067000D10579F7C601DF91CF911F910F91FF90BE
:10068000EF90DF90CF900C940203CF92DF92EF9225
:10069000FF920F931F93CF93DF93EC01F62E642FFD
:1006A0008C810E94CF018D818F3F19F060E00E9404
:1006B000CF010F2D10E08F8584FF25C06E0187E0EC
:1006C000C80ED11CF12CE12CB8010E2C02C075957E
:1006D00067950A94E2F76170F60181916F010E94BB
:1006E000CF01FFEFEF1AFF0A88E0E816F10461F787
:1006F000CE01DF91CF911F910F91FF90EF90DF908E
:10070000CF900C940203B80184E0759567958A95A3
:10071000E1F7CE010E9418036F2DCE01DF91CF913A
:100720001F910F91FF90EF90DF90CF900C941803E2
:1007300040E0682F88E092E00C94450381E00E943D
:1007400098038BE39FE10197F1F70895CF93DF932F
:10075000823029F490911702986090931702809349
:100760001B0210921C0280E480931D0280E18093A2
:100770001E0280E580931F0261E080910C020E94BE
:100780001B0280910D028F3F19F061E00E941B0255
:1007900061E080910E020E941B02C8E0D2E09E013F
:1007A000285032408091170284FD0BC084E090E015
:1007B00021962817390744F461E08E810E941B02BC
:1007C000EECF88E090E0F4CF8BE39DE00197F1F766
:1007D00060E080910C020E94CF0160E080910E02E7
:1007E0000E94CF0180910D028F3F19F060E00E94BE
:1007F000CF018091170284FD34C063E088E092E06D
:100800000E941803CBE4D6E4CE010197F1F763E030
:1008100088E092E00E9418032197F1F763E088E0F6
:1008200092E00E94180383E592E00197F1F762E0FD
:1008300088E092E00E9418038091170280620E9473
:10084000980384E0809318028CE00E9498030E9431
:100850009E0382E08093190286E0DF91CF910C9491
:10086000980380620E9498038BE496E40197F1F765
:100870008091170280620E94980383E592E00197BD
:10088000F1F78091170280620E949803D5CF41E072
:100890000E94450381E090E008951F920F920FB6E9
:1008A0000F9211242F933F934F935F936F937F93F6
:1008B0008F939F93AF93BF93EF93FF9386E491E061
:1008C0000E944001FF91EF91BF91AF919F918F9155
:1008D0007F916F915F914F913F912F910F900FBE3C
:1008E0000F901F9018951F920F920FB60F92112420
:1008F0002F938F939F93EF93FF93E0915601F09185
:1009000057018081E0915C01F0915D0182FD1BC087
:10091000908180915F018F5F8F73209160018217BA
:1009200041F0E0915F01F0E0EA5BFE4F958F80932C
:100930005F01FF91EF919F918F912F910F900FBECB
:100940000F901F9018958081F4CF1F920F920FB6D1
:100950000F9211242F933F938F939F93AF93BF9345
:1009600080913E0190913F01A0914001B0914101E1
:1009700030913D0123E0230F2D3758F50196A11D3D
:10098000B11D20933D0180933E0190933F01A093C0
:100990004001B09341018091420190914301A091A7
:1009A0004401B09145010196A11DB11D8093420102
:1009B00090934301A0934401B0934501BF91AF913F
:1009C0009F918F913F912F910F900FBE0F901F908D
:1009D000189526E8230F0296A11DB11DD2CF1F92B4
:1009E0000F920FB60F9211242F933F934F935F9363
:1009F0006F937F938F939F93AF93BF93CF93DF9327
:100A0000EF93FF9380913C01C0910702D0E087FFF4
:100A100024C0109285001092840080913C018F5F69
:100A200080933C0180913C01082E000C990B8C179F
:100A30009D0724F480913C018C30C4F180918400A6
:100A400090918500049680349C4908F47AC0809186
:100A5000840090918500049676C080913C01082E18
:100A6000000C990B8C179D07C4F6E0913C018E2F6A
:100A7000EE0F990BFC01EE0FFF1FE80FF91FED5170
:100A8000FE4F808186FFC9CFE0913C018E2FEE0F93
:100A9000990BFC01EE0FFF1FE80FF91FED51FE4F00
:100AA000808160E08F730E94CF01B7CF20918400D6
:100AB00030918500E0913C018E2FEE0F990BFC01E7
:100AC000EE0FFF1FE80FF91FED51FE4F818192815C
:100AD000820F931F9093890080938800E0913C01DE
:100AE0008E2FEE0F990BFC01EE0FFF1FE80FF91F81
:100AF000ED51FE4F808186FF11C0E0913C018E2FA9
:100B0000EE0F990BFC01EE0FFF1FE80FF91FED51DF
:100B1000FE4F808161E08F730E94CF01FF91EF91C2
:100B2000DF91CF91BF91AF919F918F917F916F9105
:100B30005F914F913F912F910F900FBE0F901F909B
:100B4000189580E49CE990938900809388008FEF4A
:100B500080933C01E3CF1F920F920FB60F921124A6
:100B60002F933F934F935F936F937F938F939F93B5
:100B7000AF93BF93EF93FF93F0E0E0E00995FF910F
:100B8000EF91BF91AF919F918F917F916F915F9105
:100B90004F913F912F910F900FBE0F901F9018957E
:100BA000CF92DF92EF92FF920F931F93E82FF92FCE
:100BB00005C0015011092109310961F19081962385
:100BC0009417B9F305C0015011092109310911F138
:100BD000908196239413F7CFC12CD12CE12CF12CCA
:100BE0000AC08FEFC81AD80AE80AF80A0C151D05C2
:100BF0002E053F0579F080818623841791F36C2DB3
:100C00007D2D8E2D9F2D1F910F91FF90EF90DF90E6
:100C1000CF90089560E070E080E090E01F910F9128
:100C2000FF90EF90DF90CF900895109249011092BD
:100C3000480188EE93E0A0E0B0E080934A019093F1
:100C40004B01A0934C01B0934D0184E091E090934F
:100C500047018093460185EC90E090935301809387
:100C6000520184EC90E0909355018093540180EC04
:100C700090E0909357018093560181EC90E090931F
:100C800059018093580182EC90E090935B0180932E
:100C90005A0186EC90E090935D0180935C01109284
:100CA0005F01109260011092610110926201EAEB03
:100CB000F0E0E491E0932702EBEBF0E0E491E093C5
:100CC000280286EA90E0FC012491E22FF0E0EE0F8A
:100CD000FF1FE057FF4F2591349130932A02209354
:100CE0002902E7EAF0E0E491F0E0EE0FFF1FEA5797
:100CF000FF4F2591349130932C0220932B02FC015D
:100D00008491E82FF0E0EE0FFF1FE458FF4F85912C
:100D1000949190932E0280932D028BE59BE090930B
:100D2000300280932F02809107028C30F0F591E021
:100D3000980F909307028093200290E0FC01EE0F41
:100D4000FF1FE80FF91FED51FE4F88EB9BE09283E8
:100D5000818310920B0210920A0286E191E0909337
:100D600009028093080288E080930C028FEF809341
:100D70000D028BE080930E0287E080930F0286E0E5
:100D80008093100285E08093110284E08093120228
:100D90001092130210921402109215021092160271
:100DA0001092170281E00C94A6038FEF809320022B
:100DB000D0CF789484B5826084BD84B5816084BDD1
:100DC00085B5826085BD85B5816085BD80916E00E9
:100DD000816080936E00109281008091810082601A
:100DE0008093810080918100816080938100809157
:100DF00080008160809380008091B1008460809346
:100E0000B1008091B00081608093B00080917A0041
:100E1000846080937A0080917A00826080937A0067
:100E200080917A00816080937A0080917A00806856
:100E300080937A001092C100E0915601F091570121
:100E400082E08083E0915201F09153011082E091A1
:100E50005401F09155018FEC808310925E01E09176
:100E60005A01F0915B0186E08083E0915801F09196
:100E70005901808180618083E0915801F09159018E
:100E8000808188608083E0915801F09159018081D0
:100E900080688083E0915801F091590180818F7DB5
:100EA000808361E08CE00E941B0260E08DE00E9484
:100EB0001B0261E082E00E941B0261E083E00E946D
:100EC0001B02809120028C3008F051C061E089E063
:100ED0000E941B0280912002282F30E0F901EE0FC2
:100EE000FF1FE20FF31FED51FE4F9081907C996040
:100EF000908310922102109222022CE0622F0E9415
:100F0000640A829FB001112430E020E0AB01420F5F
:100F1000531FFA01EE0FFF1FE40FF51FED51FE4FB7
:100F2000908196FD16C02F5F3F4F2C30310571F731
:100F300081110FC01092800082E080938100109296
:100F4000850010928400B19A80916F008260809336
:100F50006F00E09120028E2F90E0FC01EE0FFF1F4A
:100F6000E80FF91FED51FE4F80818064808382E09D
:100F70000E94A60353E2252E312C68E8A62EB12C40
:100F8000C8E5D2E074EB472E512C612C712CE0E0C7
:100F90008E2EE0E09E2E60E08CE00E94CF0183E088
:100FA00090E00197F1F761E08CE00E94CF01C10170
:100FB0000197F1F760E08CE00E94CF01EBEBF0E0ED
:100FC0006491E7EAF0E08491E82FF0E0EE0FFF1F74
:100FD000EA57FF4F8591949100E412E42FE030E04E
:100FE000462F0E94D005611571058105910529F0F4
:100FF0006F5F7F4F8F4F9F4F9F709B0177FF02C0A6
:101000002F5F3F4FB90175956795072E000C880B30
:10101000990B0E94D8092DEC3CEC48EE51E40E945B
:101020002E090E94A0096B018B01E1E080911B0257
:101030008111E0E0E195F0E0E85FFD4F8489806890
:101040000E9498030D2C000CEE08FF084AE0C7012F
:10105000B601F7FE0EC041E06DE288E092E00E942A
:10106000450366277727CB016C197D098E099F09F7
:101070004AE00E94A7028EE191E00E94F50268EE2C
:1010800073E080E090E00E94710260E00536110597
:10109000E4F582E00E94CF0161E083E00E94CF018D
:1010A0000E949E03E0911B02E23068F5E150F0E0FF
:1010B000E85FFD4F84898F5F80680E94980381E21A
:1010C00091E00E94F502809122029E01281B3109C5
:1010D00087FD3395C901880F991F880F991F0E94BA
:1010E0008C0062EC71E080E090E00E94710281145B
:1010F000910409F450CF0E942C01882309F44BCFAE
:101100000E94000048CFE1E0D2CF83E00E94CF01EF
:1011100061E082E00E94CF010E949E03E0911B02E9
:10112000E23008F03EC0E150F0E0E85FFD4F848916
:101130008F5F80680E9498038DE291E00E94F50223
:10114000809121026501C81AD10887FDD394CC0C87
:10115000DD1CCC0CDD1C0D2C000CEE08FF08809172
:1011600022029E01281B310987FD3395220F331F70
:10117000220F331F032E000C440B550B2C193D0975
:101180004E095F09AAE5B0E00E94F208A3019201AE
:101190000E94D308DA01C9018C0D9D1DAE1DBF1D33
:1011A0009ECFE1E0C1CF052E97FB1EF400940E9474
:1011B000EA0857FD07D00E94FD0807FC03D04EF453
:1011C0000C94EA0850954095309521953F4F4F4F2C
:1011D0005F4F089590958095709561957F4F8F4FE3
:1011E0009F4F08950E941F09A59F900DB49F900DD9
:1011F000A49F800D911D11240895A1E21A2EAA1B0F
:10120000BB1BFD010DC0AA1FBB1FEE1FFF1FA217B6
:10121000B307E407F50720F0A21BB30BE40BF50BB3
:10122000661F771F881F991F1A9469F7609570953C
:10123000809590959B01AC01BD01CF010895A29FBF
:10124000B001B39FC001A39F700D811D1124911D9A
:10125000B29F700D811D1124911D08950E944209B5
:101260000C942A0A0E94230A58F00E941C0A40F09B
:1012700029F45F3F29F00C94130A51110C945E0A73
:101280000C94190A0E943B0A68F39923B1F3552381
:1012900091F3951B550BBB27AA2762177307840789
:1012A00038F09F5F5F4F220F331F441FAA1FA9F31F
:1012B00035D00E2E3AF0E0E832D091505040E6950D
:1012C000001CCAF72BD0FE2F29D0660F771F881F6E
:1012D000BB1F261737074807AB07B0E809F0BB0B61
:1012E000802DBF01FF2793585F4F3AF09E3F510575
:1012F00078F00C94130A0C945E0A5F3FE4F3983E76
:10130000D4F3869577956795B795F7959F5FC9F75D
:10131000880F911D9695879597F90895E1E0660FDE
:10132000771F881FBB1F621773078407BA0720F057
:10133000621B730B840BBA0BEE1F88F7E0950895C0
:101340000E94A7096894B1110C945E0A08950E9446
:10135000430A88F09F5798F0B92F9927B751B0F0FA
:10136000E1F0660F771F881F991F1AF0BA95C9F729
:1013700014C0B13091F00E945D0AB1E008950C9460
:101380005D0A672F782F8827B85F39F0B93FCCF313
:10139000869577956795B395D9F73EF490958095A6
:1013A000709561957F4F8F4F9F4F0895E89409C0C6
:1013B00097FB3EF490958095709561957F4F8F4F88
:1013C0009F4F9923A9F0F92F96E9BB279395F6959E
:1013D000879577956795B795F111F8CFFAF4BB0F1C
:1013E00011F460FF1BC06F5F7F4F8F4F9F4F16C080
:1013F000882311F096E911C0772321F09EE8872F0A
:10140000762F05C0662371F096E8862F70E060E0C5
:101410002AF09A95660F771F881FDAF7880F96953E
:10142000879597F9089597F99F6780E870E060E0E5
:1014300008959FEF80EC089500240A94161617066D
:1014400018060906089500240A94121613061406B5
:1014500005060895092E0394000C11F4882352F018
:10146000BB0F40F4BF2B11F460FF04C06F5F7F4FD0
:101470008F4F9F4F089557FD9058440F551F59F0B7
:101480005F3F71F04795880F97FB991F61F09F3F71
:1014900079F087950895121613061406551FF2CF9A
:1014A0004695F1DF08C0161617061806991FF1CFEA
:1014B00086957105610508940895E894BB27662711
:1014C0007727CB0197F90895991B79E004C0991FFC
:1014D000961708F0961B881F7A95C9F7809508958E
:1014E000EE0FFF1F0590F491E02D0994F894FFCFC3
:1014F000000000006201C200EF00AF012001FE0009
:101500001201000000004704C200A402A302636DA0
:101510000020636C6F7365207461702000206F7011
:08152000656E2074617020006B
:00000001FF
